:10086C00E4F50CF50D050DE50D7002050CE50DB468
:07087C00C4F3E50CB409EE22
:010883002252
:0C088400758902758C0575A882D28C2243
:03000B00020800E8
:10080000C0E0300011E5091509700215081445080B
:100810007004D290C200300111E50B150B70021567
:0D0820000A14450A7004D291C201D0E032E2
:1008500020000BC290D20075080F7509A02220015C
:0C0860000AC291D201750A0F750BA0228C
:10082D007590FF75A0FF43807FC283C200C2011285
:10083D0008843000032001FA2086F71208501208B0
:03084D006C80EFCD
:0300000002089063
:0C089000787FE4F6D8FD75812002082D69
:00000001FF
