:0608D600C0F9A4B09992E4
:03000300020800F0
:10080000C0E0C083C082C0D075D018C2B785A070C8
:10081000D2B7C2B6D2B6AF707E00C3EF9467748011
:100820009480400FD3EF9499748094805005900881
:10083000D8807EAF707E00C3EF949A74809480401D
:100840000FD3EF94CC7480948050059008D98061C8
:100850007E00C3748094804010D3E570943374801C
:10086000948050059008D68048AF707E00C3EF9406
:100870003474809480400FD3EF94667480948050D9
:10088000059008D7802BAF707E00C3EF94CD7480A5
:100890009480400FD3EF94FE7480948050059008AC
:1008A000DA800ED3E57094FE74809480400790083F
:0E08B000DBE493F590D0D0D082D083D0E0323C
:0C08BE0075880175A881C2B6D2B680FE14
:030000000208CA29
:0C08CA00787FE4F6D8FD7581700208BE4E
:00000001FF
