:0A089700C0F9A4B0999282F8809095
:10085F00C2877590FFC2B3C2B4D287120800BFFF20
:10086F00057590FF80F5EFFD3395E0FC74972DF53E
:0C087F008274083CF583E493F59080DF60
:100800007FFF43807FC28330863130853130843131
:1008100043807FC28230862C30852C30842C4380EC
:100820007FC28130862730852730842743807FC26E
:1008300080308622308522308422227F01227F026E
:10084000227F03227F04227F05227F06227F072248
:0F0850007F08227F09227F00227F00227F002263
:0300000002088B68
:0C088B00787FE4F6D8FD75810702085F55
:00000001FF
