:10093100100848656C6C6F20776F726C64202E2EE6
:020941002E0086
:10091600E4F51912088CAF19051974082FF8E6F5D5
:0B092600186006FF1208E780ED80FE5D
:10088C00C293C297C296D295C294D292C2921209C6
:10089C0044D292C292D297C296D295C294D292C2AC
:1008AC0092120944C297C296C295C294D292C29235
:1008BC00C297D296D295C294D292C292120944C2D5
:1008CC0097C296C295C294D292C292D297D296D225
:0B08DC0095D294D292C29212094422DD
:1008E700D293EFA2E79297A2E69296A2E59295A2FB
:1008F700E49294D292C292A2E39297A2E29296A233
:0F090700E19295A2E09294D292C29212094422F8
:050944007832D8FE220C
:03000000020800F3
:0C080000787FE4F6D8FD758119020847E6
:10080C00020916E493A3F8E493A34003F68001F2E3
:10081C0008DFF48029E493A3F85407240CC8C333ED
:10082C00C4540F4420C8834004F456800146F6DFBC
:10083C00E4800B0102040810204080900931E47E12
:10084C00019360BCA3FF543F30E509541FFEE493B1
:10085C00A360010ECF54C025E060A840B8E493A378
:10086C00FAE493A3F8E493A3C8C582C8CAC583CAA3
:10087C00F0A3C8C582C8CAC583CADFE9DEE780BE5B
:0109430000B3
:00000001FF
