:03000300020800F0
:10080000C0E0C0D075D018C2B785A070D2B7C2B64C
:10081000D2B6AF707E00C3EF9420748094805005F0
:10082000C2900208C9C3EF9440EE648094805007E0
:10083000C290C2910208CBC3EF9460EE64809480B2
:100840005009C290C291C2920208CDC3EF9480EECB
:1008500064809480500AC290C291C292C293806F09
:10086000C3EF94A0EE64809480500CC290C291C2F9
:1008700092C293C294805AC3EF94C0EE6480948075
:10088000500EC290C291C292C293C294C29580434C
:10089000C3EF94E0EE648094805012C290C291C283
:1008A00092C293C294C295C296D297802AC3EE6434
:1008B0008094815012C290C291C292C293C294C2DB
:1008C00095C296C2978010D290D291D292D293D2F2
:0C08D00094D295D296D297D0D0D0E032CE
:0C08DC0075880175A881C2B6D2B680FEF6
:030000000208E80B
:0C08E800787FE4F6D8FD7581700208DC12
:00000001FF
